:04000000D6EF0CF03B
:1010000000010010000001001054484552452049DD
:1010100053204E4F2043484F494345204C494B45B0
:1010200020544849530D0A003031323334353637B5
:1010300038394142434445460052454C41593120DC
:101040003A204F4646200D0A0052454C4159322065
:101050003A204F4646200D0A00434F4F4C45522040
:101060003A204F4646200D0A00486561746572209B
:101070003A204F4646200D0A00200D0A4C45447385
:101080002042696E3A2030620052454C415931206D
:101090003A204F4E200D0A0052454C415932203A19
:1010A000204F4E200D0A00434F4F4C4552203A200E
:1010B0004F4E200D0A00486561746572203A204F3A
:1010C0004E200D0A004E616E63792D4D6173610DE6
:1010D0000A004C454473204865783A203078002552
:0510E000303258000051
:1010E600000EF26E000EF16E04005BEC0CF0A1EC4B
:1010F6000CF0C50E026E100E036E07EC0CF0849019
:10110600829A82948290000E026EFA0E016E8EEC26
:101116000CF0000E836E000E026EFA0E016E8EEC5F
:101126000CF0040081B00CD0000E836E8490829A7D
:1011360082948290000E026EFA0E016E8EEC0CF016
:1011460081B208D0829A8284000E026EFA0E016E77
:101156008EEC0CF081B408D0828A8294000E026E66
:10116600FA0E016E8EEC0CF081B638D083B003D047
:101176001C6A1C2A01D01C6A83501C18FE0B1C1802
:10118600836E83B203D01C6A1C2A01D01C6A1C46DB
:1011960083501C18FD0B1C18836E83BC03D01C6A7D
:1011A6001C2A01D01C6A1C3A1C461C4683501C187B
:1011B600BF0B1C18836E83BE03D01C6A1C2A01D089
:1011C6001C6A1C321C3283501C187F0B1C18836E41
:1011D600000E026EFA0E016E8EEC0CF081B83AD05B
:1011E60083B403D01C6A1C2A01D01C6A1C461C4608
:1011F60083501C18FB0B1C18836E83B603D01C6A25
:101206001C2A01D01C6A1C461C461C4683501C180E
:10121600F70B1C18836E83B803D01C6A1C2A01D0F6
:101226001C6A1C3A83501C18EF0B1C18836E83BA79
:1012360003D01C6A1C2A01D01C6A1C3A1C46835027
:101246001C18DF0B1C18836E000E026EFA0E016E60
:101256008EEC0CF081BA1CD082B003D01C6A1C2A1A
:1012660001D01C6A82501C18FE0B1C18826E84B0BA
:1012760003D01C6A1C2A01D01C6A84501C18FE0B61
:101286001C18846E000E026EFA0E016E8EEC0CF0C7
:10129600C2EC0CF00009D8B444D7DBEC0CF02A6E93
:1012A600460E026E100E036E07EC0CF0470E2A185F
:1012B600D8A43DD082AA07D0B60E026E100E036ED9
:1012C60007EC0CF006D0690E026E100E036E07ECEA
:1012D6000CF082A407D0A70E026E100E036E07EC68
:1012E6000CF006D0590E026E100E036E07EC0CF0D1
:1012F60082A007D0890E026E100E036E07EC0CF06A
:1013060006D0390E026E100E036E07EC0CF084A0A8
:1013160007D0980E026E100E036E07EC0CF001D784
:10132600490E026E100E036E07EC0CF0FAD6670E2D
:101336002A18D8A436D083CF29F0260E086E000EC0
:10134600096EDF0E0A6E100E0B6E29C00CF00D6AC8
:10135600B2EC0AF01D0E016E000E026E29C003F0FB
:10136600C9EC0BF0D20E026E100E036E07EC0CF0F9
:10137600260E026E000E036E07EC0CF0790E026E5E
:10138600100E036E07EC0CF01D0E026E000E036EBF
:1013960007EC0CF0460E026E100E036E07EC0CF016
:1013A600C0D6680E2A18D8A409D0829A8284000E64
:1013B600026EFA0E016E8EEC0CF0B3D6480E2A18A9
:1013C600D8A409D0828A8294000E026EFA0E016EAB
:1013D6008EEC0CF0A6D6630E2A18D8A408D08290FC
:1013E600000E026EFA0E016E8EEC0CF09AD6430ECB
:1013F6002A18D8A408D08280000E026EFA0E016E5A
:101406008EEC0CF08ED6720E2A18D8A408D08490D2
:10141600000E026EFA0E016E8EEC0CF082D6520EA3
:101426002A18D8A408D08480000E026EFA0E016E27
:101436008EEC0CF076D6640E2A18D8A439D083B078
:1014460003D01C6A1C2A01D01C6A83501C18FE0B90
:101456001C18836E83B203D01C6A1C2A01D01C6A36
:101466001C4683501C18FD0B1C18836E83BC03D0CE
:101476001C6A1C2A01D01C6A1C3A1C461C46835056
:101486001C18BF0B1C18836E83BE03D01C6A1C2A53
:1014960001D01C6A1C321C3283501C187F0B1C188E
:1014A600836E000E026EFA0E016E8EEC0CF039D6CB
:1014B600440E2A18D8A43BD083B403D01C6A1C2A35
:1014C60001D01C6A1C461C4683501C18FB0B1C18BA
:1014D600836E83B603D01C6A1C2A01D01C6A1C4684
:1014E6001C461C4683501C18F70B1C18836E83B8C9
:1014F60003D01C6A1C2A01D01C6A1C3A83501C1893
:10150600EF0B1C18836E83BA03D01C6A1C2A01D009
:101516001C6A1C3A1C4683501C18DF0B1C18836E71
:10152600000E026EFA0E016E8EEC0CF0FAD57A0EF3
:101536002A18D8A40DD0000E836E8490829A8294C5
:101546008290000E026EFA0E016E8EEC0CF0E9D55A
:10155600090E026E100E036E07EC0CF0E2D50C0EAF
:10156600126E000E136EFFD0250E1B18D8B409D0CC
:1015760008C0D9FF09C0DAFF1BC0DFFF084A092AE5
:10158600F2D0000E1A6E000E196E000E156E03D004
:1015960015840A4A0B2A0AC0F6FF0BC0F7FF08009B
:1015A600F550300AD8B4F4D70AC0F6FF0BC0F7FFDF
:1015B6000800F550B3EC0CF0D8A032D0000E1A6E2D
:1015C600000E196E19C001F01AC002F0000E046E6A
:1015D6000A0E036E7BEC0CF001C019F002C01AF083
:1015E600D00E0E6EFF0E0F6E0AC0F6FF0BC0F7FF91
:1015F6000800F550106E116A0E5010260F50112279
:101606001050192611501A220A4A0B2A0AC0F6FF50
:101616000BC0F7FF0800F550B3EC0CF0D8B0D2D7EA
:101626000AC0F6FF0BC0F7FF0A4A0B2A0800F5CFDF
:101636001BF01B50000AD8B4A2D0580AD8B403D065
:10164600200AD8A490D012C0D9FF13C0DAFFDECF8B
:1016560016F0DDCF17F0020E1226000E1322010E31
:101666001B6E040E1B18D8B412D01B50020D010EAF
:10167600F324F66E100EF420F76E0900F550165C92
:101686000900F5501758D8A002D01B2AEAD7800EB9
:101696001BBE7F0E0E6E19501B5C1A50800A0E5828
:1016A600D8B007D01B50195E000E1BBEFF0E1A5A8B
:1016B60004D0000E1A6E000E196E15A410D0195023
:1016C6001A10D8B41FD008C0D9FF09C0DAFF300EEF
:1016D600DF6E084A092A1906D8A01A06F0D719504B
:1016E6001A10D8B40FD008C0D9FF09C0DAFF200EEF
:1016F600DF6E084A092A1906D8A01A0619501A10C8
:10170600D8A4F1D71BC018F02AD016C001F017C014
:1017160002F01850020D010EF324F66E100EF4209E
:10172600F76E0900F5CF03F00A00F5CF04F032ECAE
:101736000CF001500F0B146E1450010D280EF324FB
:10174600F66E100EF420F76E0800F5CF1BF008C0F9
:10175600D9FF09C0DAFF1BC0DFFF084A092A1806AD
:101766001828D8A4D2D70AC0F6FF0BC0F7FF0A4A3A
:101776000B2A0800F5CF1BF01B50D8A4F5D608C0DD
:10178600D9FF09C0DAFF000EDF6E1200000E096EE7
:10179600070E086E09BE2FD008C004F0010E056EB4
:1017A600042A02D0D8900536042EFCD7055003141F
:1017B6000009D8A404D0000E076E300E03D0000E28
:1017C600076E310E066E08C004F009C005F0041E4F
:1017D600051E044A052A070E0426000E052204509B
:1017E6000124D96E05500220DA6E06C0DFFF080616
:1017F600D8A00906CFD720EE08F00150D92602500E
:10180600DA22000EDF6E120015D002C0F6FF03C00A
:10181600F7FF000EF86E0F0EF76403D00800F550C0
:1018260005D0F6CFD9FFF7CFDAFFDF50CEEC0CF0BC
:10183600024A032A02C0F6FF03C0F7FF000EF86E45
:101846000F0EF76403D00800F55005D0F6CFD9FF88
:10185600F7CFDAFFDF500009D8B41200D6D7000E52
:10186600066E000E056E03500410D8B41CD0010E8F
:10187600076E04D0D89003360436072A04AEFAD78A
:10188600D890053606360350015C04500258D8A09D
:1018960005D00350015E0450025A0580D8900432E8
:1018A6000332072EEDD705C001F006C002F0120084
:1018B600000EC26E0B0EC16E000E846E84CF83FFC7
:1018C60083CF82FF82CF81FF81CF80FF000E8D6E96
:1018D6008DCF8CFF8CCF8BFF8BCF8AFF8ACF89FF72
:1018E600000E966E96CF94FF94CF95FF93681200E4
:1018F60001500302F3CF05F0F4CF06F001500402C5
:10190600F350062602500302F350062605C001F0E6
:1019160006C002F01200000E046E000E036E07D021
:10192600C80E04000400E82EFCD7034A042A01501E
:10193600035C02500458D8B01200F2D7B896000ED5
:10194600AC6E190EAF6E000EB06EAC84AC8A000E93
:10195600AB6EAB88AB8EAECF01F0AECF01F012000E
:10196600036E000E026E3A0E036005D02F0E03645E
:1019760002D0010E026E02C001F001301200ABB4BB
:1019860002D0ABA202D0AB98AB889EAA02D0010EC1
:101996001200000E1200016E01D00400ACA2FDD7A9
:1019A60001C0ADFF1200000EF86E000173EF08F0E3
:0819B600AECF01F00150120058
:020000040020DA
:08000000FFFFFFFFFFFFFFFF00
:020000040030CA
:0E000000FF011F1FFF8385FF0FC00FE00F40A1
:00000001FF
